:100000000C942A000C943C000C943C000C943C0092
:100010000C943C000C943C000C943C000C943C0070
:100020000C943C000C943C000C943C000C943C0060
:100030000C943C000C943C000C943C000C943C0050
:100040000C943C000C943C000C943C000C943C0040
:100050000C943C0011241FBECFE5D8E0DEBFCDBF1D
:1000600020E0A0E6B0E001C01D92A636B207E1F79D
:100070000E943E000C9402010C940000E2E6F0E0C5
:1000800080E895E291838083138281E08283CF01AF
:100090000E9474002FEF80E792E021508040904052
:1000A000E1F700C0000080E00E94BB0080E00E94F9
:1000B000BE002FEF80E792E0215080409040E1F7B2
:1000C00000C0000061E680E00E94B80061E680E0C8
:1000D0000E94B8002FEF80E792E0215080409040CE
:1000E000E1F700C00000F2CFFC0180B5866080BD62
:1000F000599A80B5806880BD80B5938140E1949F16
:1001000090011124282B20BD90B58281880F880F83
:10011000880F892B80BD20813181C901A0E0B0E02A
:10012000880F991FAA1FBB1F880F991FAA1FBB1FEB
:100130009C01AD01220F331F441F551F60E472E480
:100140008FE090E00E94C10021503109309361009E
:100150002093600080B5806880BD80B58F7B80BDB6
:100160004F988091600089B98091610080BD0895A9
:100170006CB980E00895539A80E00895549A80E025
:100180000895052E97FB1EF400940E94D80057FD99
:1001900007D00E94E00007FC03D04EF40C94D80076
:1001A00050954095309521953F4F4F4F5F4F0895A3
:1001B00090958095709561957F4F8F4F9F4F0895D3
:1001C000A1E21A2EAA1BBB1BFD010DC0AA1FBB1F5B
:1001D000EE1FFF1FA217B307E407F50720F0A21BCD
:1001E000B30BE40BF50B661F771F881F991F1A943A
:1001F00069F760957095809590959B01AC01BD0164
:08020000CF010895F894FFCF2F
:00000001FF
